{
  "abi": [
    {
      "inputs": [],
      "stateMutability": "nonpayable",
      "type": "constructor"
    },
    {
      "anonymous": false,
      "inputs": [
        {
          "indexed": true,
          "internalType": "address",
          "name": "owner",
          "type": "address"
        },
        {
          "indexed": true,
          "internalType": "address",
          "name": "spender",
          "type": "address"
        },
        {
          "indexed": false,
          "internalType": "uint256",
          "name": "value",
          "type": "uint256"
        }
      ],
      "name": "Approval",
      "type": "event"
    },
    {
      "anonymous": false,
      "inputs": [
        {
          "indexed": true,
          "internalType": "address",
          "name": "previousOwner",
          "type": "address"
        },
        {
          "indexed": true,
          "internalType": "address",
          "name": "newOwner",
          "type": "address"
        }
      ],
      "name": "OwnershipTransferred",
      "type": "event"
    },
    {
      "anonymous": false,
      "inputs": [
        {
          "indexed": false,
          "internalType": "address",
          "name": "",
          "type": "address"
        },
        {
          "indexed": false,
          "internalType": "uint256",
          "name": "",
          "type": "uint256"
        }
      ],
      "name": "TokenBought",
      "type": "event"
    },
    {
      "anonymous": false,
      "inputs": [
        {
          "indexed": false,
          "internalType": "address",
          "name": "",
          "type": "address"
        },
        {
          "indexed": false,
          "internalType": "uint256",
          "name": "",
          "type": "uint256"
        }
      ],
      "name": "TokensRedeemed",
      "type": "event"
    },
    {
      "anonymous": false,
      "inputs": [
        {
          "indexed": true,
          "internalType": "address",
          "name": "from",
          "type": "address"
        },
        {
          "indexed": true,
          "internalType": "address",
          "name": "to",
          "type": "address"
        },
        {
          "indexed": false,
          "internalType": "uint256",
          "name": "value",
          "type": "uint256"
        }
      ],
      "name": "Transfer",
      "type": "event"
    },
    {
      "inputs": [
        {
          "internalType": "address",
          "name": "owner",
          "type": "address"
        },
        {
          "internalType": "address",
          "name": "spender",
          "type": "address"
        }
      ],
      "name": "allowance",
      "outputs": [
        {
          "internalType": "uint256",
          "name": "",
          "type": "uint256"
        }
      ],
      "stateMutability": "view",
      "type": "function"
    },
    {
      "inputs": [
        {
          "internalType": "address",
          "name": "spender",
          "type": "address"
        },
        {
          "internalType": "uint256",
          "name": "amount",
          "type": "uint256"
        }
      ],
      "name": "approve",
      "outputs": [
        {
          "internalType": "bool",
          "name": "",
          "type": "bool"
        }
      ],
      "stateMutability": "nonpayable",
      "type": "function"
    },
    {
      "inputs": [
        {
          "internalType": "address",
          "name": "account",
          "type": "address"
        }
      ],
      "name": "balanceOf",
      "outputs": [
        {
          "internalType": "uint256",
          "name": "",
          "type": "uint256"
        }
      ],
      "stateMutability": "view",
      "type": "function"
    },
    {
      "inputs": [
        {
          "internalType": "uint256",
          "name": "amount",
          "type": "uint256"
        }
      ],
      "name": "burn",
      "outputs": [],
      "stateMutability": "nonpayable",
      "type": "function"
    },
    {
      "inputs": [
        {
          "internalType": "address",
          "name": "account",
          "type": "address"
        },
        {
          "internalType": "uint256",
          "name": "amount",
          "type": "uint256"
        }
      ],
      "name": "burnFrom",
      "outputs": [],
      "stateMutability": "nonpayable",
      "type": "function"
    },
    {
      "inputs": [],
      "name": "buyToken",
      "outputs": [],
      "stateMutability": "payable",
      "type": "function"
    },
    {
      "inputs": [],
      "name": "decimals",
      "outputs": [
        {
          "internalType": "uint8",
          "name": "",
          "type": "uint8"
        }
      ],
      "stateMutability": "view",
      "type": "function"
    },
    {
      "inputs": [
        {
          "internalType": "address",
          "name": "spender",
          "type": "address"
        },
        {
          "internalType": "uint256",
          "name": "subtractedValue",
          "type": "uint256"
        }
      ],
      "name": "decreaseAllowance",
      "outputs": [
        {
          "internalType": "bool",
          "name": "",
          "type": "bool"
        }
      ],
      "stateMutability": "nonpayable",
      "type": "function"
    },
    {
      "inputs": [],
      "name": "getCurrentSupply",
      "outputs": [
        {
          "internalType": "uint256",
          "name": "",
          "type": "uint256"
        }
      ],
      "stateMutability": "view",
      "type": "function"
    },
    {
      "inputs": [],
      "name": "getMaxSupply",
      "outputs": [
        {
          "internalType": "uint256",
          "name": "",
          "type": "uint256"
        }
      ],
      "stateMutability": "pure",
      "type": "function"
    },
    {
      "inputs": [],
      "name": "getPrice",
      "outputs": [
        {
          "internalType": "int256",
          "name": "",
          "type": "int256"
        }
      ],
      "stateMutability": "view",
      "type": "function"
    },
    {
      "inputs": [],
      "name": "getTokenBalance",
      "outputs": [
        {
          "internalType": "uint256",
          "name": "",
          "type": "uint256"
        }
      ],
      "stateMutability": "view",
      "type": "function"
    },
    {
      "inputs": [
        {
          "internalType": "address",
          "name": "spender",
          "type": "address"
        },
        {
          "internalType": "uint256",
          "name": "addedValue",
          "type": "uint256"
        }
      ],
      "name": "increaseAllowance",
      "outputs": [
        {
          "internalType": "bool",
          "name": "",
          "type": "bool"
        }
      ],
      "stateMutability": "nonpayable",
      "type": "function"
    },
    {
      "inputs": [],
      "name": "name",
      "outputs": [
        {
          "internalType": "string",
          "name": "",
          "type": "string"
        }
      ],
      "stateMutability": "view",
      "type": "function"
    },
    {
      "inputs": [],
      "name": "owner",
      "outputs": [
        {
          "internalType": "address",
          "name": "",
          "type": "address"
        }
      ],
      "stateMutability": "view",
      "type": "function"
    },
    {
      "inputs": [
        {
          "internalType": "uint256",
          "name": "amount",
          "type": "uint256"
        }
      ],
      "name": "redeemTokens",
      "outputs": [],
      "stateMutability": "nonpayable",
      "type": "function"
    },
    {
      "inputs": [],
      "name": "renounceOwnership",
      "outputs": [],
      "stateMutability": "nonpayable",
      "type": "function"
    },
    {
      "inputs": [],
      "name": "symbol",
      "outputs": [
        {
          "internalType": "string",
          "name": "",
          "type": "string"
        }
      ],
      "stateMutability": "view",
      "type": "function"
    },
    {
      "inputs": [],
      "name": "totalSupply",
      "outputs": [
        {
          "internalType": "uint256",
          "name": "",
          "type": "uint256"
        }
      ],
      "stateMutability": "view",
      "type": "function"
    },
    {
      "inputs": [
        {
          "internalType": "address",
          "name": "to",
          "type": "address"
        },
        {
          "internalType": "uint256",
          "name": "amount",
          "type": "uint256"
        }
      ],
      "name": "transfer",
      "outputs": [
        {
          "internalType": "bool",
          "name": "",
          "type": "bool"
        }
      ],
      "stateMutability": "nonpayable",
      "type": "function"
    },
    {
      "inputs": [
        {
          "internalType": "address",
          "name": "from",
          "type": "address"
        },
        {
          "internalType": "address",
          "name": "to",
          "type": "address"
        },
        {
          "internalType": "uint256",
          "name": "amount",
          "type": "uint256"
        }
      ],
      "name": "transferFrom",
      "outputs": [
        {
          "internalType": "bool",
          "name": "",
          "type": "bool"
        }
      ],
      "stateMutability": "nonpayable",
      "type": "function"
    },
    {
      "inputs": [
        {
          "internalType": "address",
          "name": "newOwner",
          "type": "address"
        }
      ],
      "name": "transferOwnership",
      "outputs": [],
      "stateMutability": "nonpayable",
      "type": "function"
    }
  ],
  "bytecode": {
    "object": "0x60806040523480156200001157600080fd5b506040805180820182526004808252631b9554d160e21b60208084018290528451808601909552918452908301529060036200004e8382620001a6565b5060046200005d8282620001a6565b5050506200007a62000074620000ab60201b60201c565b620000af565b600680546001600160a01b03191673694aa1769357215de4fac081bf1f309adc325306179055600060075562000272565b3390565b600580546001600160a01b038381166001600160a01b0319831681179093556040519116919082907f8be0079c531659141344cd1fd0a4f28419497f9722a3daafe3b4186f6b6457e090600090a35050565b634e487b7160e01b600052604160045260246000fd5b600181811c908216806200012c57607f821691505b6020821081036200014d57634e487b7160e01b600052602260045260246000fd5b50919050565b601f821115620001a157600081815260208120601f850160051c810160208610156200017c5750805b601f850160051c820191505b818110156200019d5782815560010162000188565b5050505b505050565b81516001600160401b03811115620001c257620001c262000101565b620001da81620001d3845462000117565b8462000153565b602080601f831160018114620002125760008415620001f95750858301515b600019600386901b1c1916600185901b1785556200019d565b600085815260208120601f198616915b82811015620002435788860151825594840194600190910190840162000222565b5085821015620002625787850151600019600388901b60f8161c191681555b5050505050600190811b01905550565b6112d680620002826000396000f3fe6080604052600436106101355760003560e01c806379cc6790116100ab578063a457c2d71161006f578063a457c2d714610341578063a482171914610361578063a6e158f814610369578063a9059cbb14610389578063dd62ed3e146103a9578063f2fde38b146103c957600080fd5b806379cc6790146102ad57806382b2e257146102cd5780638da5cb5b146102ef57806395d89b411461031757806398d5fdca1461032c57600080fd5b806339509351116100fd57806339509351146101f057806342966c68146102105780634c0f38c2146102325780634f3e1efc1461024d57806370a0823114610262578063715018a61461029857600080fd5b806306fdde031461013a578063095ea7b31461016557806318160ddd1461019557806323b872dd146101b4578063313ce567146101d4575b600080fd5b34801561014657600080fd5b5061014f6103e9565b60405161015c9190611013565b60405180910390f35b34801561017157600080fd5b5061018561018036600461107d565b61047b565b604051901515815260200161015c565b3480156101a157600080fd5b506002545b60405190815260200161015c565b3480156101c057600080fd5b506101856101cf3660046110a7565b610495565b3480156101e057600080fd5b506040516012815260200161015c565b3480156101fc57600080fd5b5061018561020b36600461107d565b6104b9565b34801561021c57600080fd5b5061023061022b3660046110e3565b6104db565b005b34801561023e57600080fd5b50670de0b6b3a76400006101a6565b34801561025957600080fd5b506007546101a6565b34801561026e57600080fd5b506101a661027d3660046110fc565b6001600160a01b031660009081526020819052604090205490565b3480156102a457600080fd5b506102306104e8565b3480156102b957600080fd5b506102306102c836600461107d565b6104fc565b3480156102d957600080fd5b50336000908152602081905260409020546101a6565b3480156102fb57600080fd5b506005546040516001600160a01b03909116815260200161015c565b34801561032357600080fd5b5061014f610515565b34801561033857600080fd5b506101a6610524565b34801561034d57600080fd5b5061018561035c36600461107d565b6105a9565b610230610629565b34801561037557600080fd5b506102306103843660046110e3565b610747565b34801561039557600080fd5b506101856103a436600461107d565b610902565b3480156103b557600080fd5b506101a66103c436600461111e565b610910565b3480156103d557600080fd5b506102306103e43660046110fc565b61093b565b6060600380546103f890611151565b80601f016020809104026020016040519081016040528092919081815260200182805461042490611151565b80156104715780601f1061044657610100808354040283529160200191610471565b820191906000526020600020905b81548152906001019060200180831161045457829003601f168201915b5050505050905090565b6000336104898185856109b1565b60019150505b92915050565b6000336104a3858285610ad5565b6104ae858585610b4f565b506001949350505050565b6000336104898185856104cc8383610910565b6104d691906111a1565b6109b1565b6104e53382610cf3565b50565b6104f0610e25565b6104fa6000610e7f565b565b610507823383610ad5565b6105118282610cf3565b5050565b6060600480546103f890611151565b600080600660009054906101000a90046001600160a01b03166001600160a01b031663feaf968c6040518163ffffffff1660e01b815260040160a060405180830381865afa15801561057a573d6000803e3d6000fd5b505050506040513d601f19601f8201168201806040525081019061059e91906111ce565b509195945050505050565b600033816105b78286610910565b90508381101561061c5760405162461bcd60e51b815260206004820152602560248201527f45524332303a2064656372656173656420616c6c6f77616e63652062656c6f77604482015264207a65726f60d81b60648201526084015b60405180910390fd5b6104ae82868684036109b1565b6000341161066a5760405162461bcd60e51b815260206004820152600e60248201526d125b9d985b1a5908185b5bdd5b9d60921b6044820152606401610613565b60006305f5e100610679610524565b6106839190611234565b90506000671bc16d674ec8000061069a8334611262565b6106a49190611279565b9050670de0b6b3a7640000816007546106bd91906111a1565b11156107045760405162461bcd60e51b815260206004820152601660248201527545786365656473206d6178696d756d20737570706c7960501b6044820152606401610613565b60408051338152602081018390527fa3a187cfc249a33f6c4046e8d418886eea8564f9dd214a32aa5ba08d9602b543910160405180910390a16105113382610ed1565b600081116107885760405162461bcd60e51b815260206004820152600e60248201526d125b9d985b1a5908185b5bdd5b9d60921b6044820152606401610613565b336000908152602081905260409020548111156107de5760405162461bcd60e51b8152602060048201526014602482015273496e73756666696369656e742062616c616e636560601b6044820152606401610613565b60006305f5e1006107ed610524565b6107f79190611234565b90506000610806826002611262565b61081884670de0b6b3a7640000611262565b6108229190611279565b9050804710156108745760405162461bcd60e51b815260206004820152601d60248201527f496e73756666696369656e7420636f6e74726163742062616c616e63650000006044820152606401610613565b604051339082156108fc029083906000818181858888f193505050501580156108a1573d6000803e3d6000fd5b5060408051338152602081018590527fcdd4c59de26b3f8623e6012ab9bc32a995eda3452d89c941fc8af6b74276ad38910160405180910390a182600760008282546108ed919061128d565b909155506108fd90503384610cf3565b505050565b600033610489818585610b4f565b6001600160a01b03918216600090815260016020908152604080832093909416825291909152205490565b610943610e25565b6001600160a01b0381166109a85760405162461bcd60e51b815260206004820152602660248201527f4f776e61626c653a206e6577206f776e657220697320746865207a65726f206160448201526564647265737360d01b6064820152608401610613565b6104e581610e7f565b6001600160a01b038316610a135760405162461bcd60e51b8152602060048201526024808201527f45524332303a20617070726f76652066726f6d20746865207a65726f206164646044820152637265737360e01b6064820152608401610613565b6001600160a01b038216610a745760405162461bcd60e51b815260206004820152602260248201527f45524332303a20617070726f766520746f20746865207a65726f206164647265604482015261737360f01b6064820152608401610613565b6001600160a01b0383811660008181526001602090815260408083209487168084529482529182902085905590518481527f8c5be1e5ebec7d5bd14f71427d1e84f3dd0314c0f7b2291e5b200ac8c7c3b925910160405180910390a3505050565b6000610ae18484610910565b90506000198114610b495781811015610b3c5760405162461bcd60e51b815260206004820152601d60248201527f45524332303a20696e73756666696369656e7420616c6c6f77616e63650000006044820152606401610613565b610b4984848484036109b1565b50505050565b6001600160a01b038316610bb35760405162461bcd60e51b815260206004820152602560248201527f45524332303a207472616e736665722066726f6d20746865207a65726f206164604482015264647265737360d81b6064820152608401610613565b6001600160a01b038216610c155760405162461bcd60e51b815260206004820152602360248201527f45524332303a207472616e7366657220746f20746865207a65726f206164647260448201526265737360e81b6064820152608401610613565b6001600160a01b03831660009081526020819052604090205481811015610c8d5760405162461bcd60e51b815260206004820152602660248201527f45524332303a207472616e7366657220616d6f756e7420657863656564732062604482015265616c616e636560d01b6064820152608401610613565b6001600160a01b03848116600081815260208181526040808320878703905593871680835291849020805487019055925185815290927fddf252ad1be2c89b69c2b068fc378daa952ba7f163c4a11628f55a4df523b3ef910160405180910390a3610b49565b6001600160a01b038216610d535760405162461bcd60e51b815260206004820152602160248201527f45524332303a206275726e2066726f6d20746865207a65726f206164647265736044820152607360f81b6064820152608401610613565b6001600160a01b03821660009081526020819052604090205481811015610dc75760405162461bcd60e51b815260206004820152602260248201527f45524332303a206275726e20616d6f756e7420657863656564732062616c616e604482015261636560f01b6064820152608401610613565b6001600160a01b0383166000818152602081815260408083208686039055600280548790039055518581529192917fddf252ad1be2c89b69c2b068fc378daa952ba7f163c4a11628f55a4df523b3ef910160405180910390a3505050565b6005546001600160a01b031633146104fa5760405162461bcd60e51b815260206004820181905260248201527f4f776e61626c653a2063616c6c6572206973206e6f7420746865206f776e65726044820152606401610613565b600580546001600160a01b038381166001600160a01b0319831681179093556040519116919082907f8be0079c531659141344cd1fd0a4f28419497f9722a3daafe3b4186f6b6457e090600090a35050565b670de0b6b3a764000081600754610ee891906111a1565b1115610f2f5760405162461bcd60e51b815260206004820152601660248201527545786365656473206d6178696d756d20737570706c7960501b6044820152606401610613565b610f398282610f54565b8060076000828254610f4b91906111a1565b90915550505050565b6001600160a01b038216610faa5760405162461bcd60e51b815260206004820152601f60248201527f45524332303a206d696e7420746f20746865207a65726f2061646472657373006044820152606401610613565b8060026000828254610fbc91906111a1565b90915550506001600160a01b038216600081815260208181526040808320805486019055518481527fddf252ad1be2c89b69c2b068fc378daa952ba7f163c4a11628f55a4df523b3ef910160405180910390a35050565b600060208083528351808285015260005b8181101561104057858101830151858201604001528201611024565b506000604082860101526040601f19601f8301168501019250505092915050565b80356001600160a01b038116811461107857600080fd5b919050565b6000806040838503121561109057600080fd5b61109983611061565b946020939093013593505050565b6000806000606084860312156110bc57600080fd5b6110c584611061565b92506110d360208501611061565b9150604084013590509250925092565b6000602082840312156110f557600080fd5b5035919050565b60006020828403121561110e57600080fd5b61111782611061565b9392505050565b6000806040838503121561113157600080fd5b61113a83611061565b915061114860208401611061565b90509250929050565b600181811c9082168061116557607f821691505b60208210810361118557634e487b7160e01b600052602260045260246000fd5b50919050565b634e487b7160e01b600052601160045260246000fd5b8082018082111561048f5761048f61118b565b805169ffffffffffffffffffff8116811461107857600080fd5b600080600080600060a086880312156111e657600080fd5b6111ef866111b4565b9450602086015193506040860151925060608601519150611212608087016111b4565b90509295509295909350565b634e487b7160e01b600052601260045260246000fd5b6000826112435761124361121e565b600160ff1b82146000198414161561125d5761125d61118b565b500590565b808202811582820484141761048f5761048f61118b565b6000826112885761128861121e565b500490565b8181038181111561048f5761048f61118b56fea2646970667358221220a79b0c5a6cf8166389707fd11cb900662c7b8ee4f9dcb1b9be36f4b69872a1b364736f6c63430008140033",
    "linkReferences": {}
  },
  "methodIdentifiers": {
    "allowance(address,address)": "dd62ed3e",
    "approve(address,uint256)": "095ea7b3",
    "balanceOf(address)": "70a08231",
    "burn(uint256)": "42966c68",
    "burnFrom(address,uint256)": "79cc6790",
    "buyToken()": "a4821719",
    "decimals()": "313ce567",
    "decreaseAllowance(address,uint256)": "a457c2d7",
    "getCurrentSupply()": "4f3e1efc",
    "getMaxSupply()": "4c0f38c2",
    "getPrice()": "98d5fdca",
    "getTokenBalance()": "82b2e257",
    "increaseAllowance(address,uint256)": "39509351",
    "name()": "06fdde03",
    "owner()": "8da5cb5b",
    "redeemTokens(uint256)": "a6e158f8",
    "renounceOwnership()": "715018a6",
    "symbol()": "95d89b41",
    "totalSupply()": "18160ddd",
    "transfer(address,uint256)": "a9059cbb",
    "transferFrom(address,address,uint256)": "23b872dd",
    "transferOwnership(address)": "f2fde38b"
  },
  "id": 10
}